:100000003BC055C0ABC153C052C051C050C04FC01F
:100010004EC04DC04CC04BC04AC049C048C004038C
:1000200009041C0344006F006D0065007300740038
:10003000690063004800610063006B0073000E03F9
:1000400042006C006F0065006E006B001201100131
:10005000FF000008C016DC050001010200010902D2
:100060001900010100806409040000010000000083
:10007000070581030800640011241FBECFE5D2E00C
:10008000DEBFCDBF10E0A0E6B0E0E6E5F9E002C0DB
:1000900005900D92A236B107D9F713E0A2E6B0E0C1
:1000A00001C01D92A739B107E1F78DD352C4A8CF83
:1000B0008BB780628BBFAC9A8BE4809371008AE52A
:1000C0008093700008951F93DC01162F80917000BB
:1000D00084FF07C08091710098E8892780937100A0
:1000E00003C08AE580937000912FE2E7F0E08D91E4
:1000F000819391501916DCF382E790E0612F17D1BC
:100100001C5F109370001F9108951F93CF93DF938E
:1001100090918100935097FD91C020917E00809135
:100120007D008D3209F088C0983009F085C0CCE0A0
:10013000D0E0C21BD109CB57DF4F83EC8093650021
:100140008AE580936000109263008881807621F0B8
:10015000CE017BD3282F67C09A8110926E008981CF
:10016000882321F410926F0022E057C0853019F4E3
:100170009093820051C08630D9F58B81813041F453
:100180008CE490E09093800080937F0022E12CC06B
:10019000823041F48EE590E09093800080937F0060
:1001A00029E122C08330F9F48A81882341F48EE169
:1001B00090E09093800080937F0024E015C0813010
:1001C00041F482E290E09093800080937F002CE1E4
:1001D0000BC0823041F48EE390E0909380008093D6
:1001E0007F002EE001C020E080E4809363001BC00C
:1001F000883021F421E084E890E011C0893019F4BE
:100200009093840009C08A3011F421E006C08B303D
:1002100019F48BE48093710020E08EE690E09093D7
:10022000800080937F008F81882321F48E81821744
:1002300008F4282F209361001092810080916000C3
:1002400084FF45C0809161008F3F09F440C0182FA2
:10025000893008F018E0811B80936100809165006F
:1002600098E8892780936500112321F120917F0070
:10027000309180008091630086FF0AC0912FF901C0
:10028000A6E6B0E084918D9331969150D9F708C0DD
:10029000912FD901E6E6F0E08D9181939150E1F73D
:1002A000C90101961150810F911D1F5F909380002D
:1002B00080937F0086E690E0612F39D0612F6C5FDC
:1002C0006C3019F08FEF809361006093600094E1CF
:1002D00086B3887131F49150D9F710928200109250
:1002E0007C0010E0992309F411E0809162008117ED
:1002F00029F0112309F4FDD110936200DF91CF9111
:100300001F910895A82FB92F80E090E041E050EAB6
:10031000609530E009C02D9182279795879510F060
:1003200084279527305EC8F36F5FA8F30895EADF4E
:100330008D939D930895A6E088279927AA9569F043
:100340000197E1F3B399FCCFB39BFECF81E09927EE
:10035000A6B3019611F0A871D9F70895CF93CFB73E
:10036000CF93C395B39BE9F7B39B0BC0B39B09C075
:10037000B39B07C0B39B05C0B39B03C0B39B01C035
:10038000D5C00F92DF93C0917E00DD27CB57DF4FA2
:10039000012EB39B03C0DF910F90E6CF2F930F93F5
:1003A0001F934F932FEF4F6F06B303FB20F95F931B
:1003B0003F9350E03BE065C016B30126502953FD42
:1003C000C89556B3012703FB25F92F7306B3B1F087
:1003D0005027102713FB26F906B22230F0F000C098
:1003E00016B3012703FB27F90126502906B2243052
:1003F000E8F54F77206816B30000F6CF50274F7D01
:10040000206206B2102F000000C006B3002650295B
:10041000102713FB26F906B2E2CF4F7B06B3206408
:1004200000C0DACF01265029187106B269F14E7F5B
:100430002160012F16B328C0002650294D7F06B237
:100440002260102F29C0012650294B7F06B224605C
:10045000012F2DC016B301265029477F28600000C8
:1004600006B22EC04F7E06B3206130C0422706B3CD
:10047000499300265029102706B24FEF13FB20F9AD
:10048000297F16B379F2187159F10126502906B265
:10049000012703FB21F9237F06B371F200265029BF
:1004A0003150D0F006B2102713FB22F9277E16B385
:1004B00051F201265029012703FB06B223F92F7CB4
:1004C00049F2000006B3102713FB24F90026502937
:1004D00006B22F7939F270CF10E21ABF002719C087
:1004E0003B503195C31BD04010E21ABF0881033C3A
:1004F00009F10B34F9F020917C001981110F1213CE
:10050000EDCF4A81441F093651F10D3211F0013E01
:1005100029F7009383003F915F914F911F910F91B5
:100520002F91DF910F90CAB7C5FD1BCFCF91CFBFE1
:10053000CF91189520918300222369F310918100B7
:10054000112379F534307AF13093810020937D00C6
:1005500010917E003BE0311B30937E0024C000915F
:1005600081000130F4F40AE54F7049F430916000E5
:1005700034FD1AC000936000C5E6D0E019C0309188
:10058000700034FD11C000937000C1E7D0E010C0CE
:10059000052710E000C021C0052710E0C89508BB62
:1005A00014C03AE501C032ED032EC0E0D0E032E0E5
:1005B00017B31861C39A08B317BB58E120E84FEF8F
:1005C00020FF052708BB279517951C3F28F700003B
:1005D0004552B0F720FF0527279508BB17951C3F0C
:1005E000B8F629913A9561F7077E10918200110FB4
:1005F00008BBC250D04011F010937C0010E21ABF2B
:10060000086017B3177E402F477E54E05A95F1F7E4
:1006100008BB17BB48BB7FCFFC0128B32E7F98B324
:10062000916013C0819138E098BB880F3A9500C063
:1006300008F028BB000000C000C0000028BB19F073
:1006400000C000C0F1CF615070406115710551F7D5
:100650000895FC0188B3242F2095282398B3942B68
:1006600013C0819138E098BB880F3A9500C008F01C
:1006700028BB000000C000C0000028BB19F000C06B
:1006800000C0F1CF615070406115710551F70895B8
:100690001F93382F162FACE9B0E090E063E070E0D4
:1006A0002CD1FD01E80FF91F1183832F90E063E047
:1006B00070E023D1FD01E80FF91F4083832F90E004
:1006C00063E070E01AD1A80FB91F12962C931F9106
:1006D0000895682F81508D3F58F460939603809160
:1006E0009B00861710F010929B0081E090E01FD1D4
:1006F0000895DF92EF92FF920F931F93CF93DF93B2
:10070000F89400E080E8D82EEE24FF241D2D100F71
:1007100011BF11DEEC0189E0C433D8070CF0102FB3
:10072000D6940894E11CF11C88E0E816F10411F05D
:10073000012FECCF115011BF1F5FE12EFF24089451
:10074000E11CF11C13C0F7DD9C012453394037FF35
:1007500003C0309521953F4F2C173D0714F09E01A3
:1007600001C011B781B78F5F81BFE90181B790E008
:10077000E816F90644F711BF789461B780E090E07D
:10078000D6D0DF91CF911F910F91FF90EF90DF9026
:1007900008951F93F89410E00BC0812F90E063E060
:1007A00070E0ABD084569F4F63E070E035DF1F5F91
:1007B00080919603181788F378948EEC90E0019757
:1007C000F1F71F91089580E090E0A9D08F3F09F0E4
:1007D00081BF2EE088E190E00FB6F894A89581BD26
:1007E0000FBE21BD65DCBB9A20E04DE150E104C0A5
:1007F000A895CA010197F1F72150D1F7BB987894D9
:1008000081E090E08CD0809396038F3F19F488E0CC
:100810008093960310929B00B89A20919603ECE97E
:10082000F0E03EE104C01182308312823396822FC1
:1008300090E063E070E061D084569F4FE817F907BD
:1008400091F7A7DFA89561DCFDCFCF93DF93EC0193
:1008500088818076803409F04CC08981882341F4F6
:100860009A8180919603981780F490939B000DC015
:10087000813059F480919B0090E063E070E03DD0BE
:10088000FC01E456FF4F8A8181838981823059F4CB
:1008900080919B0090E063E070E02FD0FC01E45673
:1008A000FF4F8A8180838981833059F480919B0036
:1008B00090E063E070E021D0FC01E456FF4F8A81B4
:1008C00082838981843009F464DF89818A3011F45C
:1008D0008A81FFDE8981843161F48091960380935F
:1008E000640084E690E09093800080937F0081E034
:1008F00001C080E0DF91CF9108955527002480FF4B
:1009000002C0060E571F660F771F6115710521F093
:1009100096958795009799F7952F802D0895E199E1
:10092000FECF9FBB8EBBE09A99278DB30895262FEB
:10093000E199FECF9FBB8EBBE09A01970DB20216E4
:1009400039F01CBA2DBB0FB6F894E29AE19A0FBEAB
:060950000895F894FFCFAA
:020956005AFF46
:00000001FF
